:100000002BC045C044C043C042C041C040C03FC0F7
:100010003EC03DC03CC0BDC23AC039C038C0BAC302
:1000200002C300003900360000003A00370000002B
:100030003B0038000101010101010101020202023D
:1000400001020408102040800402010800000000A2
:10005000000403020100000011241FBECFE5D2E01E
:10006000DEBFCDBF10E0A0E6B0E0E2E5FFE002C0F9
:1000700005900D92A636B107D9F720E0A6E6B0E0CC
:1000800001C01D92AC3BB207E1F7CBD360C7B8CF3C
:100090002091B9009091B8002F5F921B9F7091F052
:1000A0009091B9009F5F9F702091B8009217E1F383
:1000B000E92FF0E0EA58FF4F80839093B90081E088
:1000C00090E0089590E080E008958091BB0088233F
:1000D00029F09091BA00891B990B08959091B7006F
:1000E0008091B600891B8F7090E00895EEDF892B18
:1000F00011F18091BB00882361F02091BA00E22FBA
:10010000F0E0EA59FF4F808190E02F5F2093BA0022
:1001100008959091B7008091B6009817E1F3E091AF
:10012000B700EF5FEF70E093B700F0E0EA59FF4FE0
:10013000808190E008958FEF9FEF0895813021F442
:1001400080B78F7780BF0895823019F480B78F7D94
:10015000F9CF833021F48FB58F778FBD0895843028
:10016000E9F78FB58F7DF9CF1F93CF93DF93162FCC
:1001700087FD8F77282F30E0F901E45BFF4F8491F2
:10018000F901E05CFF4FD491F901EC5CFF4FC491A1
:10019000CC2399F08111D2DFEC2FF0E0EE0FFF1F9E
:1001A000E25DFF4FA591B4918FB711110AC0F89489
:1001B000EC91D095DE23DC938FBFDF91CF911F911F
:1001C0000895F894EC91DE2BF6CFCF93DF9387FD63
:1001D0008F7790E0FC01E05CFF4F24918C5C9F4F97
:1001E000FC0184918823D1F090E0880F991FFC01D5
:1001F000E85DFF4FA591B491FC01E25DFF4FC59111
:10020000D491623071F49FB7F8943C91822F80951D
:1002100083238C93E8812E2B28839FBFDF91CF917E
:1002200008958FB7F894EC912E2B2C938FBFF6CFB7
:100230001092B7001092B6001092B8001092B90058
:1002400080938B0010928A0010928900109288008F
:1002500010928700DC9ADE9AD49AD69888EA8DB9F3
:1002600080EF8EB9089580918600853041F48091A9
:100270009A000EDF809186008F5F809386008091C8
:100280008600863041F480919B0002DF80918600D9
:100290008F5F8093860080918600873041F4809143
:1002A0009C00F6DE809186008F5F809386008091AF
:1002B0008600883041F480919D00EADE80918600BE
:1002C0008F5F8093860080918600803141F4809119
:1002D000B200DEDE809186008F5F80938600809181
:1002E0008600813141F48091B300D2DE8091860096
:1002F0008F5F8093860080918600823141F48091E7
:10030000B400C6DE809186008F5F80938600809166
:100310008600833131F48091B500BADE85E08093A8
:1003200086000895CF93DF93D498D6981DB880EFB8
:100330008EB9E3E5F0E08491E7E4F0E0D491EBE3FB
:10034000F0E0C491CC2371F08111F8DEEC2FF0E0E5
:10035000EE0FFF1FEE5DFF4FA591B491EC91ED23E1
:100360008BE011F48091600063DF84EC91E0909366
:1003700088008093870083E391E090938A008093C4
:100380008900DF91CF910895FF920F931F93CF9330
:10039000DF938FE0F82ECFE098DE892B09F4F3C0CD
:1003A000A5DE8093860080918600873CA9F48DDECF
:1003B000892B91F39BDE80936000809160008830F0
:1003C00058F380916000883738F76091600081E0D1
:1003D00090E084D3A7DFE0CF80918600813091F454
:1003E00080919A00811106C061E083E0BDDEC09378
:1003F0009A00D2CF8F3081F660E083E0B5DE1092B4
:100400009A00CACF80918600823099F480919B0037
:10041000811106C061E082E0A7DEC0939B00BCCFE3
:100420008F3009F0B9CF60E082E09EDE10929B0031
:10043000B3CF80918600833099F480919C00811124
:1004400006C061E081E090DEC0939C00A5CF8F30B4
:1004500009F0A2CF60E081E087DE10929C009CCF83
:1004600080918600843091F480919D00811105C0B7
:1004700061E07ADEC0939D008FCF8F3009F08CCF82
:1004800060E080E071DE10929D0086CF8091860052
:10049000803141F41ADE892B09F47ECF27DE809368
:1004A000B2007ACF80918600813141F40EDE892B33
:1004B00009F472CF1BDE8093B3006ECF809186006B
:1004C000823141F402DE892B09F466CF0FDE80937E
:1004D000B40062CF80918600833141F4F6DD892B30
:1004E00009F45ACF03DE8093B50056CF8091860081
:1004F0008A3099F460E083E037DE60E082E034DE49
:1005000060E081E031DE60E080E02EDE10929A0053
:1005100010929B0010929C00B6CF809186008B3089
:1005200099F461E083E020DE61E082E01DDE61E0BD
:1005300081E01ADE61E080E017DEC0939A00C0938C
:100540009B00C0939C0096CF809186008C3009F070
:1005500023CF0AE910E0D0E0F80180818F3059F410
:1005600060E08D2F01DEF8011082DF5F0F5F1F4F0B
:10057000D43091F711CF8111F8CF61E08D2FF4DDE8
:10058000F801F082F2CFDF91CF911F910F91FF9090
:1005900008951F920F920FB60F9211242F933F933D
:1005A0008F939F93AF93BF9380919200909193000C
:1005B000A0919400B09195003091910026E0230F16
:1005C0002D3768F129E8230F0396A11DB11D209353
:1005D00091008093920090939300A0939400B09325
:1005E000950080918D0090918E00A0918F00B09128
:1005F00090000196A11DB11D80938D0090938E00F7
:10060000A0938F00B0939000BF91AF919F918F9175
:100610003F912F910F900FBE0F901F90189502964B
:10062000A11DB11DD4CF1F920F920FB60F921124AE
:100630002F933F934F935F936F937F938F939F93EA
:10064000AF93BF93CF93EF93FF9380918C00823051
:1006500009F474C0B8F4882389F1813009F454C0D6
:10066000FF91EF91CF91BF91AF919F918F917F912A
:100670006F915F914F913F912F910F900FBE0F900F
:100680001F901895843009F45FC0B8F1853041F7A8
:1006900084E080938C009FB18091B6008F5F8F7053
:1006A0002091B700281709F473C08093B600E09139
:1006B000B600F0E0EA59FF4F908319C08FB188234C
:1006C00031F08FB1869590918B00891319C0789B7A
:1006D00012C0E0918900F0918A00309729F0809152
:1006E000B9008093B800099581E080938C001FB811
:1006F000D69A8EE721C084E0F8CF8FB1882321F00D
:10070000D69888EA8DB917C08091B8009091B90049
:100710009817B1F38091B8008F5F8F708093B80005
:10072000E091B800F0E0EA58FF4F80818FB982E095
:1007300080938C00D69A80E78EB992CF83E0809325
:100740008C00D6981FB8D5CF85E080938C00D698C2
:1007500080E78EB9E0918700F0918800309709F426
:100760007FCFC091B6008091B7008C1709F478CF85
:100770008EB18E7AE9F3759B73CF9091B70080911B
:10078000B600891B8F7090E00995C093B70068CFC1
:10079000D698AFCF1F920F920FB60F9211242F93BE
:1007A0003F934F935F936F937F938F939F93AF93F9
:1007B000BF93CF93EF93FF93E0918700F091880070
:1007C000309781F0C091B6008091B7008C1751F03E
:1007D0009091B7008091B600891B8F7090E00995C9
:1007E000C093B70010928C00D698CC9B18C0CE9BBB
:1007F000FCCF88EA8DB980EF8EB9FF91EF91CF9150
:10080000BF91AF919F918F917F916F915F914F9128
:100810003F912F910F900FBE0F901F90189588EF6A
:10082000E9CF81B781BF789480B7826080BF80B7FD
:10083000816080BF83B7887F836083BF789489B7E6
:10084000816089BF8EB5887F8EBD8FB581608FBD79
:100850008FB58D7F8FBD8EB5877F8EBD8EB58F7E18
:100860008EBD8EB583608EBD86B18877866886B969
:10087000379A62E087E0A9DC62E08BE0A6DC61E009
:1008800083E0A3DC61E082E0A0DC61E081E09DDC4C
:1008900061E080E09ADC81E090E018D18093600014
:1008A000809160008F3F41F48AE080936000609106
:1008B000600081E090E012D135DD9FE0B92E02EBBF
:1008C00010E082EAE82E80E0F82E4801C1E0D0E096
:1008D000F40181914F01882309F458C0F701808108
:1008E0009181A281B381892B8A2B8B2B09F04EC079
:1008F000809161008823A9F02FB7F894809192002D
:1009000090919300A0919400B09195002FBF809397
:100910009E0090939F00A093A000B093A10010921E
:1009200061006E01F1E0CF1AD108F601EE59FF4FD8
:1009300061E0808119DCF601E656FF4FB082F401D8
:100940003197808190E068EE73E0F0D2BC01990F9E
:10095000880B990BD0D120E030E040EF52E435D144
:100960002B013C0160919E0070919F008091A0003E
:100970009091A100BED19B01AC01C301B201BDD0D9
:100980008CD1F70160837183828393832196F4E095
:10099000EF0EF11CC530D10509F09ACF8FB7F8944E
:1009A000C0909200D0909300E0909400F090950059
:1009B0008FBF80919E0090919F00A091A000B09168
:1009C000A100C81AD90AEA0AFB0AC0929600D0927E
:1009D0009700E0929800F0929900C1E0D0E0F80111
:1009E00061918F0170E090E080E085D125E535E5EB
:1009F00045E051E430D22B013C01C701B60179D169
:100A00009B01AC01C301B201DCD087FF12C0809111
:100A1000610081110EC04E01F1E08F1A9108F401BE
:100A2000EE59FF4F60E080819FDBF401E656FF4FF7
:100A300010822196C530D10591F62FB7F894809198
:100A4000920090919300A0919400B09195002FBFD7
:100A500040919E0050919F006091A0007091A10074
:100A6000841B950BA60BB70B809396009093970071
:100A7000A0939800B0939900883E9340A105B105DA
:100A800008F41DCF81E0809361001092A2001092C3
:100A9000A3001092A4001092A5001092A60010923C
:100AA000A7001092A8001092A9001092AA0010921C
:100AB000AB001092AC001092AD001092AE001092FC
:100AC000AF001092B0001092B100F9CEE199FECFC4
:100AD0009FBB8EBBE09A99278DB30895262FE1998D
:100AE000FECF1CBA9FBB8EBB2DBB0FB6F894E29A0B
:100AF000E19A0FBE019608955058BB27AA270ED041
:100B000070C161D130F066D120F031F49F3F11F413
:100B10001EF456C10EF4E095E7FB4CC1E92F72D1EB
:100B200080F3BA17620773078407950718F071F40A
:100B30009EF58AC10EF4E0950B2EBA2FA02D0B0165
:100B4000B90190010C01CA01A0011124FF27591B12
:100B500099F0593F50F4503E68F11A16F040A22F18
:100B6000232F342F4427585FF3CF46953795279589
:100B7000A795F0405395C9F77EF41F16BA0B620B88
:100B8000730B840BBAF09150A1F0FF0FBB1F661FCF
:100B9000771F881FC2F70EC0BA0F621F731F841F12
:100BA00048F4879577956795B795F7959E3F08F038
:100BB000B3CF9395880F08F09927EE0F97958795F7
:100BC0000895D4D008F481E008950CD00AC102D170
:100BD00040F0F9D030F021F45F3F19F0EBC0511133
:100BE00034C1EEC00FD198F39923C9F35523B1F363
:100BF000951B550BBB27AA2762177307840738F08C
:100C00009F5F5F4F220F331F441FAA1FA9F333D0EA
:100C10000E2E3AF0E0E830D091505040E695001C9E
:100C2000CAF729D0FE2F27D0660F771F881FBB1F5A
:100C3000261737074807AB07B0E809F0BB0B802D34
:100C4000BF01FF2793585F4F2AF09E3F510568F080
:100C5000B1C0FBC05F3FECF3983EDCF3869577951F
:100C60006795B795F7959F5FC9F7880F911D969582
:100C7000879597F90895E1E0660F771F881FBB1FDE
:100C8000621773078407BA0720F0621B730B840B8B
:100C9000BA0BEE1F88F7E0950895BCD088F09F57F7
:100CA00090F0B92F9927B751A0F0D1F0660F771FB8
:100CB000881F991F1AF0BA95C9F712C0B13081F098
:100CC000C3D0B1E00895C0C0672F782F8827B85FE0
:100CD00039F0B93FCCF3869577956795B395D9F7F9
:100CE0003EF490958095709561957F4F8F4F9F4F03
:100CF0000895E89409C097FB3EF49095809570950F
:100D000061957F4F8F4F9F4F9923A9F0F92F96E957
:100D1000BB279395F695879577956795B795F111CC
:100D2000F8CFFAF4BB0F11F460FF1BC06F5F7F4F69
:100D30008F4F9F4F16C0882311F096E911C077237B
:100D400021F09EE8872F762F05C0662371F096E884
:100D5000862F70E060E02AF09A95660F771F881F53
:100D6000DAF7880F9695879597F90895990F0008F7
:100D7000550FAA0BE0E8FEEF16161706E807F9076D
:100D8000C0F012161306E407F50798F0621B730B08
:100D9000840B950B39F40A2661F0232B242B252B89
:100DA00021F408950A2609F4A140A6958FEF811D2C
:100DB000811D089597F99F6780E870E060E00895CD
:100DC0009FEF80EC089500240A9416161706180663
:100DD0000906089500240A9412161306140605063F
:100DE0000895092E0394000C11F4882352F0BB0FD0
:100DF00040F4BF2B11F460FF04C06F5F7F4F8F4F33
:100E00009F4F089557FD9058440F551F59F05F3F6D
:100E100071F04795880F97FB991F61F09F3F79F01C
:100E200087950895121613061406551FF2CF46959E
:100E3000F1DF08C0161617061806991FF1CF869520
:100E40007105610508940895E894BB276627772704
:100E5000CB0197F908950AD0C4CFB5DF28F0BADFE7
:100E600018F0952309F0A6CFABCFEFCFCBDFA8F3D7
:100E70009923D9F35523C9F3950F50E0551FAA279D
:100E8000EE27FF27BB2700240894679520F4E20F84
:100E9000F31FB41F0A1E220F331F441FAA1F66959B
:100EA000A9F7779530F4F30FB41F0A1E121E08F449
:100EB0006395330F441FAA1F221F769599F78795D4
:100EC00020F4B40F0A1E121E631F440FAA1F221F14
:100ED000331F8695A9F7862F712D602D11249F57FA
:100EE00050408AF0E1F088234AF0EE0FFF1FBB1F4D
:100EF000661F771F881F91505040A9F79E3F5105EC
:100F000070F058CFA2CF5F3FECF3983EDCF38695AC
:100F100077956795B795F795E7959F5FC1F7FE2B96
:100F2000880F911D9695879597F908950024552768
:100F300004C0080E591F880F991F009729F0769555
:100F40006795B8F37105B9F7802D952F0895F8943A
:020F5000FFCFD1
:060F52000A010302010088
:00000001FF
